{
  "contractName": "SimpleStorage",
  "abi": [
    {
      "inputs": [
        {
          "internalType": "string",
          "name": "",
          "type": "string"
        }
      ],
      "name": "files",
      "outputs": [
        {
          "internalType": "bytes32",
          "name": "fileHash",
          "type": "bytes32"
        },
        {
          "internalType": "bytes32",
          "name": "signature",
          "type": "bytes32"
        }
      ],
      "stateMutability": "view",
      "type": "function",
      "constant": true
    },
    {
      "inputs": [
        {
          "internalType": "string",
          "name": "_fileName",
          "type": "string"
        },
        {
          "internalType": "bytes32",
          "name": "_fileHash",
          "type": "bytes32"
        },
        {
          "internalType": "bytes32",
          "name": "_signature",
          "type": "bytes32"
        }
      ],
      "name": "setFile",
      "outputs": [],
      "stateMutability": "nonpayable",
      "type": "function"
    },
    {
      "inputs": [
        {
          "internalType": "string",
          "name": "_fileName",
          "type": "string"
        }
      ],
      "name": "getFile",
      "outputs": [
        {
          "internalType": "bytes32",
          "name": "",
          "type": "bytes32"
        },
        {
          "internalType": "bytes32",
          "name": "",
          "type": "bytes32"
        }
      ],
      "stateMutability": "view",
      "type": "function",
      "constant": true
    }
  ],
  "bytecode": "0x608060405234801561001057600080fd5b50610488806100206000396000f3fe608060405234801561001057600080fd5b50600436106100415760003560e01c806327979c1d14610046578063e0876aa814610062578063e775576114610093575b600080fd5b610060600480360381019061005b9190610262565b6100c4565b005b61007c60048036038101906100779190610221565b610113565b60405161008a929190610320565b60405180910390f35b6100ad60048036038101906100a89190610221565b61016a565b6040516100bb929190610320565b60405180910390f35b6040518060400160405280838152602001828152506000846040516100e99190610309565b90815260200160405180910390206000820151816000015560208201518160010155905050505050565b600080600080846040516101279190610309565b9081526020016040518091039020604051806040016040529081600082015481526020016001820154815250509050806000015181602001519250925050915091565b6000818051602081018201805184825260208301602085012081835280955050505050506000915090508060000154908060010154905082565b60006101b76101b28461037a565b610349565b9050828152602081018484840111156101cf57600080fd5b6101da8482856103ca565b509392505050565b6000813590506101f18161043b565b92915050565b600082601f83011261020857600080fd5b81356102188482602086016101a4565b91505092915050565b60006020828403121561023357600080fd5b600082013567ffffffffffffffff81111561024d57600080fd5b610259848285016101f7565b91505092915050565b60008060006060848603121561027757600080fd5b600084013567ffffffffffffffff81111561029157600080fd5b61029d868287016101f7565b93505060206102ae868287016101e2565b92505060406102bf868287016101e2565b9150509250925092565b6102d2816103c0565b82525050565b60006102e3826103aa565b6102ed81856103b5565b93506102fd8185602086016103d9565b80840191505092915050565b600061031582846102d8565b915081905092915050565b600060408201905061033560008301856102c9565b61034260208301846102c9565b9392505050565b6000604051905081810181811067ffffffffffffffff821117156103705761036f61040c565b5b8060405250919050565b600067ffffffffffffffff8211156103955761039461040c565b5b601f19601f8301169050602081019050919050565b600081519050919050565b600081905092915050565b6000819050919050565b82818337600083830152505050565b60005b838110156103f75780820151818401526020810190506103dc565b83811115610406576000848401525b50505050565b7f4e487b7100000000000000000000000000000000000000000000000000000000600052604160045260246000fd5b610444816103c0565b811461044f57600080fd5b5056fea26469706673582212201609acc2e33bbfad0c28b40c5e6d832906a41d8db5bbf82fd8e8ecee9d239c5d64736f6c63430008000033",
  "immutableReferences": {},
  "source": "// SPDX-License-Identifier: MIT \npragma solidity ^0.8.0;\n\ncontract SimpleStorage {\n    struct File {\n        bytes32 fileHash;\n        bytes32 signature;\n    }\n\n    mapping(string => File) public files;\n\n    function setFile(string memory _fileName, bytes32 _fileHash, bytes32 _signature) public {\n        files[_fileName] = File(_fileHash, _signature);\n    }\n\n    function getFile(string memory _fileName) public view returns (bytes32, bytes32) {\n        File memory file = files[_fileName];\n        return (file.fileHash, file.signature);\n    }\n}\n",
  "sourcePath": "/home/aryansingh/SimpleStorage-Blockchain-Project/contracts/SimpleStorage.sol",
  "compiler": {
    "name": "solc",
    "version": "0.8.0+commit.c7dfd78e.Emscripten.clang"
  },
  "schemaVersion": "3.4.16",
  "updatedAt": "2024-05-12T20:23:45.798Z",
  "networkType": "ethereum",
  "devdoc": {
    "kind": "dev",
    "methods": {},
    "version": 1
  },
  "userdoc": {
    "kind": "user",
    "methods": {},
    "version": 1
  }
}